{
  "_format": "hh-sol-artifact-1",
  "contractName": "MarsPredictionMarketFactory",
  "sourceName": "contracts/MarsPredictionMarketFactory.sol",
  "abi": [
    {
      "inputs": [
        {
          "internalType": "address",
          "name": "_addressResolver",
          "type": "address"
        },
        {
          "internalType": "address",
          "name": "_settlement",
          "type": "address"
        }
      ],
      "stateMutability": "nonpayable",
      "type": "constructor"
    },
    {
      "anonymous": false,
      "inputs": [
        {
          "indexed": false,
          "internalType": "bytes16",
          "name": "uuid",
          "type": "bytes16"
        },
        {
          "indexed": false,
          "internalType": "uint8",
          "name": "position",
          "type": "uint8"
        },
        {
          "indexed": false,
          "internalType": "string",
          "name": "name",
          "type": "string"
        },
        {
          "indexed": false,
          "internalType": "string",
          "name": "description",
          "type": "string"
        }
      ],
      "name": "CategoryUpdatedEvent",
      "type": "event"
    },
    {
      "anonymous": false,
      "inputs": [
        {
          "indexed": false,
          "internalType": "bytes16",
          "name": "uuid",
          "type": "bytes16"
        },
        {
          "indexed": false,
          "internalType": "bytes16",
          "name": "categoryUuid",
          "type": "bytes16"
        },
        {
          "indexed": false,
          "internalType": "uint8",
          "name": "position",
          "type": "uint8"
        },
        {
          "indexed": false,
          "internalType": "string",
          "name": "name",
          "type": "string"
        },
        {
          "indexed": false,
          "internalType": "string",
          "name": "description",
          "type": "string"
        },
        {
          "indexed": false,
          "internalType": "enum IPredictionMarketFactory.MilestoneStatus",
          "name": "status",
          "type": "uint8"
        }
      ],
      "name": "MilestoneUpdatedEvent",
      "type": "event"
    },
    {
      "anonymous": false,
      "inputs": [
        {
          "indexed": false,
          "internalType": "bytes16",
          "name": "uuid",
          "type": "bytes16"
        },
        {
          "indexed": false,
          "internalType": "address",
          "name": "predictionMarket",
          "type": "address"
        },
        {
          "indexed": false,
          "internalType": "uint8",
          "name": "position",
          "type": "uint8"
        },
        {
          "indexed": false,
          "internalType": "string",
          "name": "name",
          "type": "string"
        }
      ],
      "name": "OutcomeChangedEvent",
      "type": "event"
    },
    {
      "anonymous": false,
      "inputs": [
        {
          "indexed": false,
          "internalType": "bytes16",
          "name": "milestoneUuid",
          "type": "bytes16"
        },
        {
          "indexed": false,
          "internalType": "uint8",
          "name": "position",
          "type": "uint8"
        },
        {
          "indexed": false,
          "internalType": "string",
          "name": "name",
          "type": "string"
        },
        {
          "indexed": false,
          "internalType": "string",
          "name": "description",
          "type": "string"
        },
        {
          "indexed": false,
          "internalType": "address",
          "name": "token",
          "type": "address"
        },
        {
          "indexed": false,
          "internalType": "uint256",
          "name": "dueDate",
          "type": "uint256"
        },
        {
          "indexed": false,
          "internalType": "address",
          "name": "contractAddress",
          "type": "address"
        }
      ],
      "name": "PredictionMarketCreatedEvent",
      "type": "event"
    },
    {
      "inputs": [
        {
          "internalType": "address",
          "name": "predictionMarket",
          "type": "address"
        },
        {
          "internalType": "bytes16",
          "name": "uuid",
          "type": "bytes16"
        },
        {
          "internalType": "uint8",
          "name": "position",
          "type": "uint8"
        },
        {
          "internalType": "string",
          "name": "name",
          "type": "string"
        }
      ],
      "name": "addOutcome",
      "outputs": [],
      "stateMutability": "nonpayable",
      "type": "function"
    },
    {
      "inputs": [],
      "name": "addressResolver",
      "outputs": [
        {
          "internalType": "address",
          "name": "",
          "type": "address"
        }
      ],
      "stateMutability": "view",
      "type": "function"
    },
    {
      "inputs": [
        {
          "internalType": "bytes16",
          "name": "",
          "type": "bytes16"
        }
      ],
      "name": "categories",
      "outputs": [
        {
          "internalType": "uint8",
          "name": "position",
          "type": "uint8"
        },
        {
          "internalType": "string",
          "name": "name",
          "type": "string"
        },
        {
          "internalType": "string",
          "name": "description",
          "type": "string"
        }
      ],
      "stateMutability": "view",
      "type": "function"
    },
    {
      "inputs": [
        {
          "internalType": "bytes16",
          "name": "milestoneUuid",
          "type": "bytes16"
        },
        {
          "internalType": "uint8",
          "name": "position",
          "type": "uint8"
        },
        {
          "internalType": "string",
          "name": "name",
          "type": "string"
        },
        {
          "internalType": "string",
          "name": "description",
          "type": "string"
        },
        {
          "internalType": "address",
          "name": "token",
          "type": "address"
        },
        {
          "internalType": "uint256",
          "name": "dueDate",
          "type": "uint256"
        }
      ],
      "name": "createMarket",
      "outputs": [
        {
          "internalType": "address",
          "name": "",
          "type": "address"
        }
      ],
      "stateMutability": "nonpayable",
      "type": "function"
    },
    {
      "inputs": [
        {
          "internalType": "bytes16",
          "name": "",
          "type": "bytes16"
        }
      ],
      "name": "milestones",
      "outputs": [
        {
          "internalType": "bytes16",
          "name": "categoryUuid",
          "type": "bytes16"
        },
        {
          "internalType": "uint8",
          "name": "position",
          "type": "uint8"
        },
        {
          "internalType": "string",
          "name": "name",
          "type": "string"
        },
        {
          "internalType": "string",
          "name": "description",
          "type": "string"
        },
        {
          "internalType": "enum IPredictionMarketFactory.MilestoneStatus",
          "name": "status",
          "type": "uint8"
        }
      ],
      "stateMutability": "view",
      "type": "function"
    },
    {
      "inputs": [
        {
          "internalType": "address",
          "name": "",
          "type": "address"
        }
      ],
      "name": "predictionMarkets",
      "outputs": [
        {
          "internalType": "bytes16",
          "name": "milestoneUuid",
          "type": "bytes16"
        },
        {
          "internalType": "uint8",
          "name": "position",
          "type": "uint8"
        },
        {
          "internalType": "string",
          "name": "name",
          "type": "string"
        },
        {
          "internalType": "string",
          "name": "description",
          "type": "string"
        }
      ],
      "stateMutability": "view",
      "type": "function"
    },
    {
      "inputs": [
        {
          "internalType": "address",
          "name": "_governor",
          "type": "address"
        }
      ],
      "name": "setGovernor",
      "outputs": [],
      "stateMutability": "nonpayable",
      "type": "function"
    },
    {
      "inputs": [
        {
          "internalType": "bytes16",
          "name": "uuid",
          "type": "bytes16"
        },
        {
          "internalType": "uint8",
          "name": "position",
          "type": "uint8"
        },
        {
          "internalType": "string",
          "name": "name",
          "type": "string"
        },
        {
          "internalType": "string",
          "name": "description",
          "type": "string"
        }
      ],
      "name": "updateCategory",
      "outputs": [],
      "stateMutability": "nonpayable",
      "type": "function"
    },
    {
      "inputs": [
        {
          "internalType": "bytes16",
          "name": "uuid",
          "type": "bytes16"
        },
        {
          "internalType": "bytes16",
          "name": "categoryUuid",
          "type": "bytes16"
        },
        {
          "internalType": "uint8",
          "name": "position",
          "type": "uint8"
        },
        {
          "internalType": "string",
          "name": "name",
          "type": "string"
        },
        {
          "internalType": "string",
          "name": "description",
          "type": "string"
        },
        {
          "internalType": "enum IPredictionMarketFactory.MilestoneStatus",
          "name": "status",
          "type": "uint8"
        }
      ],
      "name": "updateMilestone",
      "outputs": [],
      "stateMutability": "nonpayable",
      "type": "function"
    }
  ],
  "bytecode": "0x60a060405234801561001057600080fd5b506040516200418d3803806200418d83398101604081905261003191610092565b6001600160601b031960609290921b91909116608052600380546001600160a01b03929092166001600160a01b031992831617905560048054909116331790556100c4565b80516001600160a01b038116811461008d57600080fd5b919050565b600080604083850312156100a4578182fd5b6100ad83610076565b91506100bb60208401610076565b90509250929050565b60805160601c6140ab620000e2600039600060bd01526140ab6000f3fe60806040523480156200001157600080fd5b5060043610620000b25760003560e01c80639f5a34081162000081578063c42cf5351162000063578063c42cf5351462000195578063edd55edf14620001ac578063f6fda60414620001c357620000b2565b80639f5a34081462000154578063b68e346a146200016b57620000b2565b806305a2ee2a14620000b75780630638402714620000fc5780630a7206c414620001135780631ca76def146200013b575b600080fd5b620000df7f000000000000000000000000000000000000000000000000000000000000000081565b6040516001600160a01b0390911681526020015b60405180910390f35b620000df6200010d3660046200112d565b620001ec565b6200012a6200012436600462000fd8565b6200045c565b604051620000f3939291906200145e565b620001526200014c36600462000ff5565b620005a3565b005b6200015262000165366004620010ac565b620007de565b620001826200017c36600462000fd8565b62000927565b604051620000f395949392919062001401565b62000152620001a636600462000f3d565b62000a92565b62000152620001bd36600462000f61565b62000b28565b620001da620001d436600462000f3d565b62000c48565b604051620000f394939291906200133e565b6004546000906001600160a01b031633146200024f5760405162461bcd60e51b815260206004820181905260248201527f4f4e4c5920474f5645524e4f522043414e20444f205448495320414354494f4e60448201526064015b60405180910390fd5b428211620002c65760405162461bcd60e51b815260206004820152602860248201527f4d4152533a20496e76616c69642070726564696374696f6e206d61726b65742060448201527f6475652064617465000000000000000000000000000000000000000000000000606482015260840162000246565b600354604051600091859185916001600160a01b031690620002e89062000da9565b6001600160a01b03938416815260208101929092529091166040820152606001604051809103906000f08015801562000325573d6000803e3d6000fd5b5060408051608080820183526fffffffffffffffffffffffffffffffff198c8116835260ff8c811660208086019182528587018e8152606087018e90526001600160a01b03891660009081526002835297909720865181549351939095169490951c939093177fffffffffffffffffffffffffffffff00ffffffffffffffffffffffffffffffff16700100000000000000000000000000000000919092160217825592518051949550919384939192620003e792600185019291019062000db7565b50606082015180516200040591600284019160209091019062000db7565b509050507fded15964ab0ea24e0fa565c368eb6d5784f051cf44d68a7e66f075347866e2718989898989898860405162000446979695949392919062001389565b60405180910390a15090505b9695505050505050565b6000602081905290815260409020805460018201805460ff9092169291620004849062001490565b80601f0160208091040260200160405190810160405280929190818152602001828054620004b29062001490565b8015620005035780601f10620004d75761010080835404028352916020019162000503565b820191906000526020600020905b815481529060010190602001808311620004e557829003601f168201915b5050505050908060020180546200051a9062001490565b80601f0160208091040260200160405190810160405280929190818152602001828054620005489062001490565b8015620005995780601f106200056d5761010080835404028352916020019162000599565b820191906000526020600020905b8154815290600101906020018083116200057b57829003601f168201915b5050505050905083565b6004546001600160a01b03163314620005ff5760405162461bcd60e51b815260206004820181905260248201527f4f4e4c5920474f5645524e4f522043414e20444f205448495320414354494f4e604482015260640162000246565b620006316040805160a08101825260008082526020820181905260609282018390528282019290925290608082015290565b6fffffffffffffffffffffffffffffffff198616815260ff851660208201526040810184905260608101839052608081018260028111156200068357634e487b7160e01b600052602160045260246000fd5b90816002811115620006a557634e487b7160e01b600052602160045260246000fd5b9052506fffffffffffffffffffffffffffffffff19808816600090815260016020818152604092839020855181548388015160ff16700100000000000000000000000000000000027fffffffffffffffffffffffffffffff00ffffffffffffffffffffffffffffffff60809390931c9190971617169490941784559184015180518594936200073993850192019062000db7565b50606082015180516200075791600284019160209091019062000db7565b50608082015160038201805460ff191660018360028111156200078a57634e487b7160e01b600052602160045260246000fd5b02179055509050507f97cb6f21bba4326123eb05c550830ca034704506c45171b654d35448a8e27ce7878787878787604051620007cd969594939291906200128c565b60405180910390a150505050505050565b6004546001600160a01b031633146200083a5760405162461bcd60e51b815260206004820181905260248201527f4f4e4c5920474f5645524e4f522043414e20444f205448495320414354494f4e604482015260640162000246565b620008626040518060600160405280600060ff16815260200160608152602001606081525090565b60ff8481168252602080830185815260408085018690526fffffffffffffffffffffffffffffffff1989166000908152808452208451815460ff19169416939093178355518051849392620008bf92600185019291019062000db7565b5060408201518051620008dd91600284019160209091019062000db7565b509050507f46221b6add3bce22aaeafeb439ab5a44b0d1f8f12d18d49533b0dcf95734e4a3858585856040516200091894939291906200133e565b60405180910390a15050505050565b600160208190526000918252604090912080549181018054608084901b93700100000000000000000000000000000000900460ff169291906200096a9062001490565b80601f0160208091040260200160405190810160405280929190818152602001828054620009989062001490565b8015620009e95780601f10620009bd57610100808354040283529160200191620009e9565b820191906000526020600020905b815481529060010190602001808311620009cb57829003601f168201915b50505050509080600201805462000a009062001490565b80601f016020809104026020016040519081016040528092919081815260200182805462000a2e9062001490565b801562000a7f5780601f1062000a535761010080835404028352916020019162000a7f565b820191906000526020600020905b81548152906001019060200180831162000a6157829003601f168201915b5050506003909301549192505060ff1685565b6004546001600160a01b0316331462000aee5760405162461bcd60e51b815260206004820181905260248201527f4f4e4c5920474f5645524e4f522043414e20444f205448495320414354494f4e604482015260640162000246565b600480547fffffffffffffffffffffffff0000000000000000000000000000000000000000166001600160a01b0392909216919091179055565b6004546001600160a01b0316331462000b845760405162461bcd60e51b815260206004820181905260248201527f4f4e4c5920474f5645524e4f522043414e20444f205448495320414354494f4e604482015260640162000246565b6040517fffebbea70000000000000000000000000000000000000000000000000000000081526001600160a01b0385169063ffebbea79062000bcf90869086908690600401620012fe565b600060405180830381600087803b15801562000bea57600080fd5b505af115801562000bff573d6000803e3d6000fd5b505050507fcd9d3cae03c2df21bc101125f0a030e027ebf1fee4c8e71291e0be1638220a1e8385848460405162000c3a949392919062001246565b60405180910390a150505050565b60026020526000908152604090208054600182018054608083901b9370010000000000000000000000000000000090930460ff1692919062000c8a9062001490565b80601f016020809104026020016040519081016040528092919081815260200182805462000cb89062001490565b801562000d095780601f1062000cdd5761010080835404028352916020019162000d09565b820191906000526020600020905b81548152906001019060200180831162000ceb57829003601f168201915b50505050509080600201805462000d209062001490565b80601f016020809104026020016040519081016040528092919081815260200182805462000d4e9062001490565b801562000d9f5780601f1062000d735761010080835404028352916020019162000d9f565b820191906000526020600020905b81548152906001019060200180831162000d8157829003601f168201915b5050505050905084565b612b9280620014e483390190565b82805462000dc59062001490565b90600052602060002090601f01602090048101928262000de9576000855562000e34565b82601f1062000e0457805160ff191683800117855562000e34565b8280016001018555821562000e34579182015b8281111562000e3457825182559160200191906001019062000e17565b5062000e4292915062000e46565b5090565b5b8082111562000e42576000815560010162000e47565b80356001600160a01b038116811462000e7557600080fd5b919050565b80356fffffffffffffffffffffffffffffffff198116811462000e7557600080fd5b600082601f83011262000ead578081fd5b813567ffffffffffffffff8082111562000ecb5762000ecb620014cd565b604051601f8301601f19908116603f0116810190828211818310171562000ef65762000ef6620014cd565b8160405283815286602085880101111562000f0f578485fd5b8360208701602083013792830160200193909352509392505050565b803560ff8116811462000e7557600080fd5b60006020828403121562000f4f578081fd5b62000f5a8262000e5d565b9392505050565b6000806000806080858703121562000f77578283fd5b62000f828562000e5d565b935062000f926020860162000e7a565b925062000fa26040860162000f2b565b9150606085013567ffffffffffffffff81111562000fbe578182fd5b62000fcc8782880162000e9c565b91505092959194509250565b60006020828403121562000fea578081fd5b62000f5a8262000e7a565b60008060008060008060c087890312156200100e578182fd5b620010198762000e7a565b9550620010296020880162000e7a565b9450620010396040880162000f2b565b9350606087013567ffffffffffffffff8082111562001056578384fd5b620010648a838b0162000e9c565b945060808901359150808211156200107a578384fd5b506200108989828a0162000e9c565b92505060a0870135600381106200109e578182fd5b809150509295509295509295565b60008060008060808587031215620010c2578384fd5b620010cd8562000e7a565b9350620010dd6020860162000f2b565b9250604085013567ffffffffffffffff80821115620010fa578384fd5b620011088883890162000e9c565b935060608701359150808211156200111e578283fd5b5062000fcc8782880162000e9c565b60008060008060008060c0878903121562001146578182fd5b620011518762000e7a565b9550620011616020880162000f2b565b9450604087013567ffffffffffffffff808211156200117e578384fd5b6200118c8a838b0162000e9c565b95506060890135915080821115620011a2578384fd5b50620011b189828a0162000e9c565b935050620011c26080880162000e5d565b915060a087013590509295509295509295565b60038110620011f457634e487b7160e01b600052602160045260246000fd5b9052565b60008151808452815b818110156200121f5760208185018101518683018201520162001201565b81811115620012315782602083870101525b50601f01601f19169290920160200192915050565b60006fffffffffffffffffffffffffffffffff19861682526001600160a01b038516602083015260ff8416604083015260806060830152620004526080830184620011f8565b60006fffffffffffffffffffffffffffffffff19808916835280881660208401525060ff8616604083015260c06060830152620012cd60c0830186620011f8565b8281036080840152620012e18186620011f8565b915050620012f360a0830184620011d5565b979650505050505050565b60006fffffffffffffffffffffffffffffffff198516825260ff8416602083015260606040830152620013356060830184620011f8565b95945050505050565b60006fffffffffffffffffffffffffffffffff198616825260ff8516602083015260806040830152620013756080830185620011f8565b8281036060840152620012f38185620011f8565b60006fffffffffffffffffffffffffffffffff198916825260ff8816602083015260e06040830152620013c060e0830188620011f8565b8281036060840152620013d48188620011f8565b6001600160a01b03968716608085015260a08401959095525050921660c090920191909152949350505050565b60006fffffffffffffffffffffffffffffffff198716825260ff8616602083015260a060408301526200143860a0830186620011f8565b82810360608401526200144c8186620011f8565b915050620004526080830184620011d5565b600060ff85168252606060208301526200147c6060830185620011f8565b8281036040840152620004528185620011f8565b600281046001821680620014a557607f821691505b60208210811415620014c757634e487b7160e01b600052602260045260246000fd5b50919050565b634e487b7160e01b600052604160045260246000fdfe60c06040523480156200001157600080fd5b5060405162002b9238038062002b92833981016040819052620000349162000143565b3380620000935760405162461bcd60e51b815260206004820152602360248201527f4d4152533a204f776e65722061646472657373206d75737420626520646566696044820152621b995960ea1b606482015260840160405180910390fd5b600080546001600160a01b0319166001600160a01b03831690811782556040805192835260208301919091527fb532073b38c83145e3e5135377a08bf9aab55bc0fd7c1179cd4fb995d2a5159c910160405180910390a150608091909152600980546001600160a01b0319166001600160a01b0390921691909117905560601b6001600160601b03191660a05262000183565b80516001600160a01b03811681146200013e57600080fd5b919050565b60008060006060848603121562000158578283fd5b620001638462000126565b9250602084015191506200017a6040850162000126565b90509250925092565b60805160a05160601c6129ca620001c86000396000818161038d0152818161089601526111d30152600081816101c7015281816102ed01526110df01526129ca6000f3fe60806040523480156200001157600080fd5b5060043610620001905760003560e01c80638f4e6f3711620000e1578063d879b82b116200008d578063f9082c01116200006f578063f9082c011462000370578063fc0c546a1462000387578063ffebbea714620003af5762000190565b8063d879b82b1462000350578063eed2a14714620003595762000190565b806395a8475111620000c357806395a8475114620002e75780639b34ae03146200030f578063aa6ca80814620003375762000190565b80638f4e6f37146200028e57806392191ce114620002ce5762000190565b806353a47bb7116200014157806379ba5097116200012357806379ba509714620002595780638abe59ea14620002635780638da5cb5b146200027a5762000190565b806353a47bb7146200020057806372bcc383146200022d5762000190565b8063358fac1c1162000177578063358fac1c14620001c55780633d18b91214620001ec5780634393a1d714620001f65762000190565b80631627540c146200019557806327ce5b8c14620001ae575b600080fd5b620001ac620001a636600462001a36565b620003c6565b005b6002545b6040519081526020015b60405180910390f35b7f0000000000000000000000000000000000000000000000000000000000000000620001b2565b620001ac62000431565b620001b260045481565b60015462000214906001600160a01b031681565b6040516001600160a01b039091168152602001620001bc565b620002146200023e36600462001a88565b6006602052600090815260409020546001600160a01b031681565b620001ac6200097c565b620002146200027436600462001bd7565b62000a7d565b60005462000214906001600160a01b031681565b620001ac6200029f36600462001a36565b6009805473ffffffffffffffffffffffffffffffffffffffff19166001600160a01b0392909216919091179055565b620002d862000aa8565b604051620001bc919062001c58565b620001b27f000000000000000000000000000000000000000000000000000000000000000081565b6005546200031d9060801b81565b6040516001600160801b03199091168152602001620001bc565b6200034162000fc6565b604051620001bc919062001c09565b600454620001b2565b6200031d6200036a36600462001bd7565b6200102a565b620001ac6200038136600462001ac6565b62001062565b620002147f000000000000000000000000000000000000000000000000000000000000000081565b620001ac620003c036600462001af4565b62001795565b620003d0620018ea565b6001805473ffffffffffffffffffffffffffffffffffffffff19166001600160a01b0383169081179091556040519081527f906a1c6bd7e3091ea86693dd029a831c19049ce77f1dce2ce0bab1cacbabce229060200160405180910390a150565b60055460801b6001600160801b0319166200045657620004506200196e565b6200045d565b60055460801b5b600580546001600160801b03191660809290921c9190911790553360009081526008602052604090205460ff1615620004dd5760405162461bcd60e51b815260206004820152601460248201527f5553455220414c524541445920434c41494d454400000000000000000000000060448201526064015b60405180910390fd5b336000818152600860209081526040808320805460017fffffffffffffffffffffffffffffffffffffffffffffffffffffffffffffff0090911617905560055460801b6001600160801b031916835260069091528082205490516370a0823160e01b8152600481019390935290916001600160a01b03909116906370a082319060240160206040518083038186803b1580156200057957600080fd5b505afa1580156200058e573d6000803e3d6000fd5b505050506040513d601f19601f82011682018060405250810190620005b4919062001bf0565b60055460801b6001600160801b03191660009081526006602090815260408083205481516318160ddd60e01b8152915194955092936001600160a01b03909316926318160ddd92600480840193919291829003018186803b1580156200061957600080fd5b505afa1580156200062e573d6000803e3d6000fd5b505050506040513d601f19601f8201168201806040525081019062000654919062001bf0565b9050801562000664578062000667565b60015b9050600081600754846200067c919062001db9565b62000688919062001d98565b60055460801b6001600160801b0319166000908152600660205260408082205490516370a0823160e01b815233600482015292935090916001600160a01b03909116906370a082319060240160206040518083038186803b158015620006ed57600080fd5b505afa15801562000702573d6000803e3d6000fd5b505050506040513d601f19601f8201168201806040525081019062000728919062001bf0565b60055460801b6001600160801b031916600090815260066020526040908190205490517f23b872dd000000000000000000000000000000000000000000000000000000008152336004820152306024820152604481018390529192506001600160a01b0316906323b872dd90606401602060405180830381600087803b158015620007b257600080fd5b505af1158015620007c7573d6000803e3d6000fd5b505050506040513d601f19601f82011682018060405250810190620007ed919062001a66565b620008615760405162461bcd60e51b815260206004820152602360248201527f4d4152533a204641494c454420544f205452414e534645522046524f4d20425560448201527f59455200000000000000000000000000000000000000000000000000000000006064820152608401620004d4565b6040517fa9059cbb000000000000000000000000000000000000000000000000000000008152336004820152602481018390527f00000000000000000000000000000000000000000000000000000000000000006001600160a01b03169063a9059cbb90604401602060405180830381600087803b158015620008e357600080fd5b505af1158015620008f8573d6000803e3d6000fd5b505050506040513d601f19601f820116820180604052508101906200091e919062001a66565b620009765760405162461bcd60e51b815260206004820152602160248201527f4d4152533a204641494c454420544f205452414e5346455220544f20425559456044820152602960f91b6064820152608401620004d4565b50505050565b6001546001600160a01b03163314620009fe5760405162461bcd60e51b815260206004820152603260248201527f4d4152533a204f6e6c79206e6f6d696e61746564206163636f756e747320636160448201527f6e20616363657074206f776e65727368697000000000000000000000000000006064820152608401620004d4565b600054600154604080516001600160a01b0393841681529290911660208301527fb532073b38c83145e3e5135377a08bf9aab55bc0fd7c1179cd4fb995d2a5159c910160405180910390a1600180546000805473ffffffffffffffffffffffffffffffffffffffff199081166001600160a01b03841617909155169055565b6003818154811062000a8e57600080fd5b6000918252602090912001546001600160a01b0316905081565b60025460609060009067ffffffffffffffff81111562000ad857634e487b7160e01b600052604160045260246000fd5b60405190808252806020026020018201604052801562000b3357816020015b6040805160a08101825260008082526020808301829052928201819052606082018190526080820152825260001990920191018162000af75790505b50905060005b60025481101562000fc0576002818154811062000b6657634e487b7160e01b600052603260045260246000fd5b90600052602060002090600291828204019190066010029054906101000a900460801b82828151811062000baa57634e487b7160e01b600052603260045260246000fd5b60209081029190910101516001600160801b03199091169052600280546006916000918490811062000bec57634e487b7160e01b600052603260045260246000fd5b6000918252602080832060028304015460019092166010026101000a90910460801b6001600160801b031916835282019290925260409081019091205490516370a0823160e01b81523360048201526001600160a01b03909116906370a082319060240160206040518083038186803b15801562000c6957600080fd5b505afa15801562000c7e573d6000803e3d6000fd5b505050506040513d601f19601f8201168201806040525081019062000ca4919062001bf0565b82828151811062000cc557634e487b7160e01b600052603260045260246000fd5b60200260200101516040018181525050600660006002838154811062000cfb57634e487b7160e01b600052603260045260246000fd5b6000918252602080832060028304015460019092166010026101000a90910460801b6001600160801b031916835282810193909352604091820190205481516318160ddd60e01b815291516001600160a01b03909116926318160ddd9260048082019391829003018186803b15801562000d7457600080fd5b505afa15801562000d89573d6000803e3d6000fd5b505050506040513d601f19601f8201168201806040525081019062000daf919062001bf0565b600754600660006002858154811062000dd857634e487b7160e01b600052603260045260246000fd5b6000918252602080832060028304015460019092166010026101000a90910460801b6001600160801b031916835282019290925260409081019091205490516370a0823160e01b81523360048201526001600160a01b03909116906370a082319060240160206040518083038186803b15801562000e5557600080fd5b505afa15801562000e6a573d6000803e3d6000fd5b505050506040513d601f19601f8201168201806040525081019062000e90919062001bf0565b62000e9c919062001db9565b62000ea8919062001d98565b82828151811062000ec957634e487b7160e01b600052603260045260246000fd5b60200260200101516060018181525050600560009054906101000a900460801b6fffffffffffffffffffffffffffffffff19166002828154811062000f1e57634e487b7160e01b600052603260045260246000fd5b90600052602060002090600291828204019190066010029054906101000a900460801b6fffffffffffffffffffffffffffffffff19161462000f6257600062000f76565b3360009081526008602052604090205460ff165b82828151811062000f9757634e487b7160e01b600052603260045260246000fd5b60209081029190910101519015156080909101528062000fb78162001ddb565b91505062000b39565b50905090565b606060038054806020026020016040519081016040528092919081815260200182805480156200102057602002820191906000526020600020905b81546001600160a01b0316815260019091019060200180831162001001575b5050505050905090565b600281815481106200103b57600080fd5b9060005260206000209060029182820401919006601002915054906101000a900460801b81565b816200108e816001600160801b0319166000908152600660205260409020546001600160a01b03161590565b15620010dd5760405162461bcd60e51b815260206004820152601960248201527f4d4152533a204f5554434f4d45204e4f5420444546494e4544000000000000006044820152606401620004d4565b7f000000000000000000000000000000000000000000000000000000000000000042106200114e5760405162461bcd60e51b815260206004820181905260248201527f4d4152533a2050524544494354494f4e2054494d4520484153205041535345446044820152606401620004d4565b604080513381526001600160801b0319851660208201529081018390527fb402b7987e9ce78d4b96d9828d7c2c27c1c91033f0365ccf578f1c1806ccf5839060600160405180910390a16040517f23b872dd000000000000000000000000000000000000000000000000000000008152336004820152306024820152604481018390527f00000000000000000000000000000000000000000000000000000000000000006001600160a01b0316906323b872dd90606401602060405180830381600087803b1580156200122057600080fd5b505af115801562001235573d6000803e3d6000fd5b505050506040513d601f19601f820116820180604052508101906200125b919062001a66565b620012cf5760405162461bcd60e51b815260206004820152602360248201527f4d4152533a204641494c454420544f205452414e534645522046524f4d20425560448201527f59455200000000000000000000000000000000000000000000000000000000006064820152608401620004d4565b60025460009067ffffffffffffffff811115620012fc57634e487b7160e01b600052604160045260246000fd5b60405190808252806020026020018201604052801562001326578160200160208202803683370190505b50905060008062001662565b600254811015620014ee5760066000600283815481106200136357634e487b7160e01b600052603260045260246000fd5b6000918252602080832060028304015460019092166010026101000a90910460801b6001600160801b031916835282810193909352604091820190205481516318160ddd60e01b815291516001600160a01b03909116926318160ddd9260048082019391829003018186803b158015620013dc57600080fd5b505afa158015620013f1573d6000803e3d6000fd5b505050506040513d601f19601f8201168201806040525081019062001417919062001bf0565b8482815181106200143857634e487b7160e01b600052603260045260246000fd5b6020026020010181815250508381815181106200146557634e487b7160e01b600052603260045260246000fd5b6020026020010151826200147a919062001d7d565b9150828482815181106200149e57634e487b7160e01b600052603260045260246000fd5b60200260200101511115620014d957838181518110620014ce57634e487b7160e01b600052603260045260246000fd5b602002602001015192505b80620014e58162001ddb565b91505062001332565b5060058560075462001501919062001d7d565b6200150e90600462001db9565b6200151a919062001d98565b62001526868462001d7d565b116200153157600080fd5b6001600160801b03198616600090815260066020526040908190205490517f40c10f19000000000000000000000000000000000000000000000000000000008152336004820152602481018790526001600160a01b03909116906340c10f1990604401602060405180830381600087803b158015620015af57600080fd5b505af1158015620015c4573d6000803e3d6000fd5b505050506040513d601f19601f82011682018060405250810190620015ea919062001a66565b620016425760405162461bcd60e51b815260206004820152602160248201527f4d4152533a204641494c454420544f205452414e5346455220544f20425559456044820152602960f91b6064820152608401620004d4565b846007600082825462001656919062001d7d565b909155506200178d9050565b6001600160801b03198616600090815260066020526040908190205490517f40c10f19000000000000000000000000000000000000000000000000000000008152336004820152602481018790526001600160a01b03909116906340c10f1990604401602060405180830381600087803b158015620016e057600080fd5b505af1158015620016f5573d6000803e3d6000fd5b505050506040513d601f19601f820116820180604052508101906200171b919062001a66565b620017735760405162461bcd60e51b815260206004820152602160248201527f4d4152533a204641494c454420544f205452414e5346455220544f20425559456044820152602960f91b6064820152608401620004d4565b846007600082825462001787919062001d7d565b90915550505b505050505050565b6200179f620018ea565b600280546001808201835560008381527f405787fa12a823e0f2b7631cc41b3ba8828b3321ca811111fa75cd3aa3bb5ace9383049390930180546fffffffffffffffffffffffffffffffff929093166010026101000a91820219909216608087901c919091021790556040516001600160801b03198516602082015260300160405160208183030381529060405260126040516200183d9062001a28565b6200184a92919062001cd6565b604051809103906000f08015801562001867573d6000803e3d6000fd5b5060038054600181019091557fc2575a0e9e593c00f959f8c92f12db2869c3395a3b0502d05e2516446f71f85b0180546001600160a01b0390921673ffffffffffffffffffffffffffffffffffffffff1992831681179091556001600160801b031990951660009081526006602052604090208054909116909417909355505050565b6000546001600160a01b031633146200196c5760405162461bcd60e51b815260206004820152603560248201527f4d4152533a204f6e6c792074686520636f6e7472616374206f776e6572206d6160448201527f7920706572666f726d207468697320616374696f6e00000000000000000000006064820152608401620004d4565b565b6009546040517f215b6c230000000000000000000000000000000000000000000000000000000081523060048201526000916001600160a01b03169063215b6c2390602401602060405180830381600087803b158015620019ce57600080fd5b505af1158015620019e3573d6000803e3d6000fd5b505050506040513d601f19601f8201168201806040525081019062001a09919062001aa7565b600580546001600160801b031916608092831c1790819055901b919050565b610b558062001e4083390190565b60006020828403121562001a48578081fd5b81356001600160a01b038116811462001a5f578182fd5b9392505050565b60006020828403121562001a78578081fd5b8151801515811462001a5f578182fd5b60006020828403121562001a9a578081fd5b813562001a5f8162001e25565b60006020828403121562001ab9578081fd5b815162001a5f8162001e25565b6000806040838503121562001ad9578081fd5b823562001ae68162001e25565b946020939093013593505050565b60008060006060848603121562001b09578081fd5b833562001b168162001e25565b9250602084013560ff8116811462001b2c578182fd5b9150604084013567ffffffffffffffff8082111562001b49578283fd5b818601915086601f83011262001b5d578283fd5b81358181111562001b725762001b7262001e0f565b604051601f8201601f19908116603f0116810190838211818310171562001b9d5762001b9d62001e0f565b8160405282815289602084870101111562001bb6578586fd5b82602086016020830137856020848301015280955050505050509250925092565b60006020828403121562001be9578081fd5b5035919050565b60006020828403121562001c02578081fd5b5051919050565b6020808252825182820181905260009190848201906040850190845b8181101562001c4c5783516001600160a01b03168352928401929184019160010162001c25565b50909695505050505050565b602080825282518282018190526000919060409081850190868401855b8281101562001cc957815180516001600160801b03191685528681015115158786015285810151868601526060808201519086015260809081015115159085015260a0909301929085019060010162001c75565b5091979650505050505050565b6000606082528351806060840152815b8181101562001d05576020818701810151608086840101520162001ce6565b8181111562001d175782608083860101525b50601f01601f1916820162001d31602084018560ff169052565b608083820301604084015262001d7460808201600381527f4d504f0000000000000000000000000000000000000000000000000000000000602082015260400190565b95945050505050565b6000821982111562001d935762001d9362001df9565b500190565b60008262001db457634e487b7160e01b81526012600452602481fd5b500490565b600081600019048311821515161562001dd65762001dd662001df9565b500290565b600060001982141562001df25762001df262001df9565b5060010190565b634e487b7160e01b600052601160045260246000fd5b634e487b7160e01b600052604160045260246000fd5b6001600160801b03198116811462001e3c57600080fd5b5056fe60806040523480156200001157600080fd5b5060405162000b5538038062000b558339810160408190526200003491620001e3565b600080546001600160a01b0319163317905582516200005b9060039060208601906200008a565b506004805460ff191660ff84161790558051620000809060059060208401906200008a565b50505050620002b6565b828054620000989062000263565b90600052602060002090601f016020900481019282620000bc576000855562000107565b82601f10620000d757805160ff191683800117855562000107565b8280016001018555821562000107579182015b8281111562000107578251825591602001919060010190620000ea565b506200011592915062000119565b5090565b5b808211156200011557600081556001016200011a565b600082601f83011262000141578081fd5b81516001600160401b03808211156200015e576200015e620002a0565b604051601f8301601f19908116603f01168101908282118183101715620001895762000189620002a0565b81604052838152602092508683858801011115620001a5578485fd5b8491505b83821015620001c85785820183015181830184015290820190620001a9565b83821115620001d957848385830101525b9695505050505050565b600080600060608486031215620001f8578283fd5b83516001600160401b03808211156200020f578485fd5b6200021d8783880162000130565b94506020860151915060ff8216821462000235578384fd5b6040860151919350808211156200024a578283fd5b50620002598682870162000130565b9150509250925092565b6002810460018216806200027857607f821691505b602082108114156200029a57634e487b7160e01b600052602260045260246000fd5b50919050565b634e487b7160e01b600052604160045260246000fd5b61088f80620002c66000396000f3fe608060405234801561001057600080fd5b50600436106100d45760003560e01c806340c10f191161008157806395d89b411161005b57806395d89b41146101d4578063a9059cbb146101dc578063dd62ed3e146101ef576100d4565b806340c10f19146101835780635c6581651461019657806370a08231146101c1576100d4565b806323b872dd116100b257806323b872dd1461013157806327e235e314610144578063313ce56714610164576100d4565b806306fdde03146100d9578063095ea7b3146100f757806318160ddd1461011a575b600080fd5b6100e1610228565b6040516100ee9190610736565b60405180910390f35b61010a61010536600461070d565b6102b6565b60405190151581526020016100ee565b61012360065481565b6040519081526020016100ee565b61010a61013f3660046106d2565b610322565b61012361015236600461067f565b60016020526000908152604090205481565b6004546101719060ff1681565b60405160ff90911681526020016100ee565b61010a61019136600461070d565b61047f565b6101236101a43660046106a0565b600260209081526000928352604080842090915290825290205481565b6101236101cf36600461067f565b610592565b6100e16105b1565b61010a6101ea36600461070d565b6105be565b6101236101fd3660046106a0565b6001600160a01b03918216600090815260026020908152604080832093909416825291909152205490565b60038054610235906107d6565b80601f0160208091040260200160405190810160405280929190818152602001828054610261906107d6565b80156102ae5780601f10610283576101008083540402835291602001916102ae565b820191906000526020600020905b81548152906001019060200180831161029157829003601f168201915b505050505081565b3360008181526002602090815260408083206001600160a01b038716808552925280832085905551919290917f8c5be1e5ebec7d5bd14f71427d1e84f3dd0314c0f7b2291e5b200ac8c7c3b925906103119086815260200190565b60405180910390a350600192915050565b6001600160a01b0383166000818152600260209081526040808320338452825280832054938352600190915281205490919083118015906103635750828110155b61036c57600080fd5b6001600160a01b038416600090815260016020526040812080548592906103949084906107a7565b90915550506001600160a01b038516600090815260016020526040812080548592906103c19084906107bf565b90915550507fffffffffffffffffffffffffffffffffffffffffffffffffffffffffffffffff811015610427576001600160a01b0385166000908152600260209081526040808320338452909152812080548592906104219084906107bf565b90915550505b836001600160a01b0316856001600160a01b03167fddf252ad1be2c89b69c2b068fc378daa952ba7f163c4a11628f55a4df523b3ef8560405161046c91815260200190565b60405180910390a3506001949350505050565b600080546001600160a01b031633146104f8576040517f08c379a000000000000000000000000000000000000000000000000000000000815260206004820152601d60248201527f4f4e4c5920474f5645524e4f522043414e204d494e5420544f4b454e53000000604482015260640160405180910390fd5b816006600082825461050a91906107a7565b90915550506001600160a01b038316600090815260016020526040812080548492906105379084906107a7565b90915550506006546040516001600160a01b038516917f4c209b5fc8ad50758f13e2e1088ba56a560dff690a1c6fef26394f4c03821c4f9161058191868252602082015260400190565b60405180910390a250600192915050565b6001600160a01b0381166000908152600160205260409020545b919050565b60058054610235906107d6565b336000908152600160205260408120548211156105da57600080fd5b33600090815260016020526040812080548492906105f99084906107bf565b90915550506001600160a01b038316600090815260016020526040812080548492906106269084906107a7565b90915550506040518281526001600160a01b0384169033907fddf252ad1be2c89b69c2b068fc378daa952ba7f163c4a11628f55a4df523b3ef90602001610311565b80356001600160a01b03811681146105ac57600080fd5b600060208284031215610690578081fd5b61069982610668565b9392505050565b600080604083850312156106b2578081fd5b6106bb83610668565b91506106c960208401610668565b90509250929050565b6000806000606084860312156106e6578081fd5b6106ef84610668565b92506106fd60208501610668565b9150604084013590509250925092565b6000806040838503121561071f578182fd5b61072883610668565b946020939093013593505050565b6000602080835283518082850152825b8181101561076257858101830151858201604001528201610746565b818111156107735783604083870101525b50601f017fffffffffffffffffffffffffffffffffffffffffffffffffffffffffffffffe016929092016040019392505050565b600082198211156107ba576107ba61082a565b500190565b6000828210156107d1576107d161082a565b500390565b6002810460018216806107ea57607f821691505b60208210811415610824577f4e487b7100000000000000000000000000000000000000000000000000000000600052602260045260246000fd5b50919050565b7f4e487b7100000000000000000000000000000000000000000000000000000000600052601160045260246000fdfea2646970667358221220f82ec9cfe9894fca3ef5e48bdcc69178f1bb890c2c5f5f8375874ecf1b9d6e4464736f6c63430008020033a2646970667358221220de099bdc46b3bf864ef960d1d323851909407c20446ffa778a696ec128c767a264736f6c63430008020033a2646970667358221220d93da39aca84a2d38b5f801b9adbb11bcc70b5c67a384a09285c4242af8cc3db64736f6c63430008020033",
  "linkReferences": {},
  "deployedLinkReferences": {}
}