{
  "_format": "hh-sol-artifact-1",
  "contractName": "Settlement",
  "sourceName": "contracts/Settlement.sol",
  "abi": [
    {
      "inputs": [
        {
          "internalType": "address",
          "name": "_marsToken",
          "type": "address"
        },
        {
          "internalType": "address",
          "name": "_governance",
          "type": "address"
        }
      ],
      "stateMutability": "nonpayable",
      "type": "constructor"
    },
    {
      "anonymous": false,
      "inputs": [
        {
          "indexed": false,
          "internalType": "address",
          "name": "_newOracle",
          "type": "address"
        },
        {
          "indexed": false,
          "internalType": "uint256",
          "name": "_sum",
          "type": "uint256"
        }
      ],
      "name": "OracleAcceptedEvent",
      "type": "event"
    },
    {
      "anonymous": false,
      "inputs": [
        {
          "indexed": true,
          "internalType": "address",
          "name": "_oracle",
          "type": "address"
        },
        {
          "indexed": true,
          "internalType": "address",
          "name": "_predictionMarket",
          "type": "address"
        },
        {
          "indexed": false,
          "internalType": "bytes16",
          "name": "_outcome",
          "type": "bytes16"
        }
      ],
      "name": "OracleVotedEvent",
      "type": "event"
    },
    {
      "anonymous": false,
      "inputs": [
        {
          "indexed": true,
          "internalType": "address",
          "name": "_predictionMarket",
          "type": "address"
        },
        {
          "indexed": false,
          "internalType": "bytes16",
          "name": "_outcome",
          "type": "bytes16"
        }
      ],
      "name": "OutcomeDefinedEvent",
      "type": "event"
    },
    {
      "anonymous": false,
      "inputs": [
        {
          "indexed": false,
          "internalType": "address",
          "name": "_newOracle",
          "type": "address"
        }
      ],
      "name": "PotentialOracleEvent",
      "type": "event"
    },
    {
      "inputs": [],
      "name": "acceptAndStake",
      "outputs": [],
      "stateMutability": "nonpayable",
      "type": "function"
    },
    {
      "inputs": [
        {
          "internalType": "address",
          "name": "_newOracle",
          "type": "address"
        }
      ],
      "name": "addOracle",
      "outputs": [],
      "stateMutability": "nonpayable",
      "type": "function"
    },
    {
      "inputs": [],
      "name": "getOracles",
      "outputs": [
        {
          "internalType": "address[]",
          "name": "",
          "type": "address[]"
        }
      ],
      "stateMutability": "view",
      "type": "function"
    },
    {
      "inputs": [
        {
          "internalType": "address",
          "name": "_predictionMarket",
          "type": "address"
        }
      ],
      "name": "getWinningOutcome",
      "outputs": [
        {
          "internalType": "bytes16",
          "name": "",
          "type": "bytes16"
        }
      ],
      "stateMutability": "nonpayable",
      "type": "function"
    },
    {
      "inputs": [
        {
          "internalType": "address",
          "name": "",
          "type": "address"
        }
      ],
      "name": "marketStatus",
      "outputs": [
        {
          "internalType": "uint256",
          "name": "votingEnd",
          "type": "uint256"
        },
        {
          "internalType": "uint256",
          "name": "oraclesVoted",
          "type": "uint256"
        },
        {
          "internalType": "bytes16",
          "name": "winningOutcome",
          "type": "bytes16"
        },
        {
          "internalType": "bool",
          "name": "finalized",
          "type": "bool"
        },
        {
          "internalType": "bool",
          "name": "startedDispute",
          "type": "bool"
        }
      ],
      "stateMutability": "view",
      "type": "function"
    },
    {
      "inputs": [
        {
          "internalType": "address",
          "name": "_predictionMarket",
          "type": "address"
        }
      ],
      "name": "openDispute",
      "outputs": [],
      "stateMutability": "nonpayable",
      "type": "function"
    },
    {
      "inputs": [
        {
          "internalType": "address",
          "name": "",
          "type": "address"
        },
        {
          "internalType": "address",
          "name": "",
          "type": "address"
        }
      ],
      "name": "oracleOutcome",
      "outputs": [
        {
          "internalType": "bytes16",
          "name": "",
          "type": "bytes16"
        }
      ],
      "stateMutability": "view",
      "type": "function"
    },
    {
      "inputs": [
        {
          "internalType": "address",
          "name": "_predictionMarket",
          "type": "address"
        }
      ],
      "name": "reachedConsensus",
      "outputs": [
        {
          "internalType": "bool",
          "name": "",
          "type": "bool"
        }
      ],
      "stateMutability": "view",
      "type": "function"
    },
    {
      "inputs": [
        {
          "internalType": "address",
          "name": "_predictionMarket",
          "type": "address"
        },
        {
          "internalType": "bytes16[]",
          "name": "_outcomes",
          "type": "bytes16[]"
        },
        {
          "internalType": "uint256",
          "name": "_votingEnd",
          "type": "uint256"
        }
      ],
      "name": "registerMarket",
      "outputs": [],
      "stateMutability": "nonpayable",
      "type": "function"
    },
    {
      "inputs": [
        {
          "internalType": "address",
          "name": "oracle",
          "type": "address"
        }
      ],
      "name": "removeOracle",
      "outputs": [],
      "stateMutability": "nonpayable",
      "type": "function"
    },
    {
      "inputs": [
        {
          "internalType": "address",
          "name": "_predictionMarket",
          "type": "address"
        },
        {
          "internalType": "bytes16",
          "name": "_outcome",
          "type": "bytes16"
        }
      ],
      "name": "setWinningOutcome",
      "outputs": [],
      "stateMutability": "nonpayable",
      "type": "function"
    },
    {
      "inputs": [
        {
          "internalType": "address",
          "name": "",
          "type": "address"
        }
      ],
      "name": "staked",
      "outputs": [
        {
          "internalType": "uint256",
          "name": "",
          "type": "uint256"
        }
      ],
      "stateMutability": "view",
      "type": "function"
    },
    {
      "inputs": [
        {
          "internalType": "address",
          "name": "_predictionMarket",
          "type": "address"
        }
      ],
      "name": "startVoting",
      "outputs": [],
      "stateMutability": "nonpayable",
      "type": "function"
    },
    {
      "inputs": [],
      "name": "startedDisputes",
      "outputs": [
        {
          "internalType": "uint256",
          "name": "",
          "type": "uint256"
        }
      ],
      "stateMutability": "view",
      "type": "function"
    },
    {
      "inputs": [],
      "name": "timeToOpenDispute",
      "outputs": [
        {
          "internalType": "uint256",
          "name": "",
          "type": "uint256"
        }
      ],
      "stateMutability": "view",
      "type": "function"
    },
    {
      "inputs": [
        {
          "internalType": "address",
          "name": "_predictionMarket",
          "type": "address"
        },
        {
          "internalType": "bytes16",
          "name": "_outcome",
          "type": "bytes16"
        }
      ],
      "name": "voteWinningOutcome",
      "outputs": [],
      "stateMutability": "nonpayable",
      "type": "function"
    },
    {
      "inputs": [],
      "name": "votingPeriod",
      "outputs": [
        {
          "internalType": "uint256",
          "name": "",
          "type": "uint256"
        }
      ],
      "stateMutability": "view",
      "type": "function"
    },
    {
      "inputs": [],
      "name": "withdraw",
      "outputs": [],
      "stateMutability": "nonpayable",
      "type": "function"
    }
  ],
  "bytecode": "0x6080604052620f4240600355620186a060045562093a80600855620151806009553480156200002d57600080fd5b5060405162001e9d38038062001e9d83398101604081905262000050916200009d565b50600780546001600160a01b039092166001600160a01b03199283161790556005805490911633179055620000d4565b80516001600160a01b03811681146200009857600080fd5b919050565b60008060408385031215620000b0578182fd5b620000bb8362000080565b9150620000cb6020840162000080565b90509250929050565b611db980620000e46000396000f3fe608060405234801561001057600080fd5b50600436106101365760003560e01c80637c41336d116100b2578063b377a85411610081578063d59c9eb611610066578063d59c9eb61461028c578063df5dd1a514610310578063fdc85fc41461032357610136565b8063b377a8541461024b578063d2773ba71461025e57610136565b80637c41336d1461021157806398807d841461021a578063a25f662c1461023a578063ae3595541461024257610136565b806328ed1bac116101095780633ccfd60b116100ee5780633ccfd60b146101e157806340884c52146101e957806378f90443146101fe57610136565b806328ed1bac146101bb57806333a2af48146101ce57610136565b806302a251a31461013b578063215b6c23146101575780632413ae371461018357806327a3fc0b14610198575b600080fd5b61014460095481565b6040519081526020015b60405180910390f35b61016a610165366004611a51565b610336565b6040516001600160801b0319909116815260200161014e565b610196610191366004611ba3565b6103e4565b005b6101ab6101a6366004611a51565b6107d1565b604051901515815260200161014e565b6101966101c9366004611ba3565b61099b565b6101966101dc366004611aa4565b610c18565b610196610ce4565b6101f1610e22565b60405161014e9190611cc0565b61019661020c366004611a51565b610e84565b610144600a5481565b610144610228366004611a51565b60006020819052908152604090205481565b610196611168565b61014460085481565b610196610259366004611a51565b611347565b61016a61026c366004611a72565b600160209081526000928352604080842090915290825290205460801b81565b6102d761029a366004611a51565b6002602081905260009182526040909120600181015491810154600390910154608081901b9060ff600160801b8204811691600160881b90041685565b6040805195865260208601949094526001600160801b03199092169284019290925290151560608301521515608082015260a00161014e565b61019661031e366004611a51565b6114f1565b610196610331366004611a51565b611601565b600061034282826103e4565b6001600160a01b038216600090815260026020526040902060030154600160801b900460ff1615156001146103be5760405162461bcd60e51b815260206004820152601f60248201527f50524544494354494f4e204953204e4f542059455420434f4e434c554445440060448201526064015b60405180910390fd5b506001600160a01b03811660009081526002602052604090206003015460801b5b919050565b6001600160a01b038216600090815260026020526040902060030154600160801b900460ff16151560011415610419576107cd565b6005546001600160a01b031633141561055a576001600160a01b0382166000818152600260209081526040918290206003018054600160801b6001600160801b0319918216608088901c177fffffffffffffffffffffffffffffff00ffffffffffffffffffffffffffffffff1617909155915191841682527f3cc4841eac21589a393c9f048061cbad9cb928f5789dc5b707ba28437cbc3644910160405180910390a26001600160a01b0382166000908152600260205260409020600301546104e690839060801b6117db565b6001600160a01b038216600090815260026020526040902060030154600160881b900460ff16151560011415610555576001600a60008282546105299190611d25565b90915550506001600160a01b0382166000908152600260205260409020600301805460ff60881b191690555b6107cd565b6008546009546001600160a01b03841660009081526002602052604090206001015442929161058891611d0d565b6105929190611d0d565b1080156105c257506001600160a01b038216600090815260026020526040902060030154600160801b900460ff16155b80156105d257506105d2826107d1565b156107cd576001600060066000815481106105fd57634e487b7160e01b600052603260045260246000fd5b6000918252602080832091909101546001600160a01b03908116845283820194909452604092830182209386168083529381528282205460029091529181206003018054600160801b6001600160801b03199091166fffffffffffffffffffffffffffffffff909416939093177fffffffffffffffffffffffffffffff00ffffffffffffffffffffffffffffffff169290921760ff60881b1916909155600680547f3cc4841eac21589a393c9f048061cbad9cb928f5789dc5b707ba28437cbc364492600192909182906106e157634e487b7160e01b600052603260045260246000fd5b6000918252602080832091909101546001600160a01b0390811684528382019490945260409283018220938816825292835281902054905160809190911b6001600160801b03191681520160405180910390a26001600160a01b03821660009081526002602052604090206003015461075e90839060801b6117db565b6001600160a01b038216600090815260026020526040902060030154600160881b900460ff161515600114156107cd576001600a60008282546107a19190611d25565b90915550506001600160a01b0382166000908152600260205260409020600301805460ff60881b191690555b5050565b6006546001600160a01b0382166000908152600260208190526040822001549091146107ff575060006103df565b60015b60065481101561099257600160006006838154811061083157634e487b7160e01b600052603260045260246000fd5b6000918252602080832091909101546001600160a01b039081168452838201949094526040928301822093871682529290925281205460801b6001600160801b0319169060019060066108848386611d25565b815481106108a257634e487b7160e01b600052603260045260246000fd5b6000918252602080832091909101546001600160a01b039081168452838201949094526040928301822093881682529290925290205460801b6001600160801b031916148015906109715750600060801b6fffffffffffffffffffffffffffffffff1916600160006006848154811061092b57634e487b7160e01b600052603260045260246000fd5b6000918252602080832091909101546001600160a01b039081168452838201949094526040928301822093881682529290925290205460801b6001600160801b03191614155b156109805760009150506103df565b8061098a81611d3c565b915050610802565b50600192915050565b6001600160a01b038216600090815260026020526040902060010154610a035760405162461bcd60e51b815260206004820152601560248201527f4d41524b4554204e4f542052454749535445524544000000000000000000000060448201526064016103b5565b33600090815260208190526040902054600110610a885760405162461bcd60e51b815260206004820152603060248201527f594f55205348414c4c204e4f5420564f54452c20756e74696c20796f7520737460448201527f616b652031206d696c20746f6b656e730000000000000000000000000000000060648201526084016103b5565b6001600160a01b0382166000908152600260205260409020600101544211610af25760405162461bcd60e51b815260206004820152601e60248201527f564f54494e4720504552494f44204841534e275420454e44454420594554000060448201526064016103b5565b6009546001600160a01b038316600090815260026020526040902060010154610b1b9190611d0d565b4210610b695760405162461bcd60e51b815260206004820152601760248201527f564f54494e4720504552494f442048415320454e44454400000000000000000060448201526064016103b5565b6001600160a01b03821660009081526002602081905260409091200154610b91906001611d0d565b6001600160a01b038316600081815260026020818152604080842090920194909455338083526001855281832084845285529181902080546001600160801b0319908116608088901c1790915590519085168152919290917f210eab9fcd97d4da5ad8b38c6ff55a819b86d89b4fed9c6da65f57d2e9a5bcec910160405180910390a35050565b6005546001600160a01b03163314610c975760405162461bcd60e51b8152602060048201526024808201527f4f4e4c5920474f5645524e414e43452043414e205245474953544552204d415260448201527f4b4554530000000000000000000000000000000000000000000000000000000060648201526084016103b5565b6001600160a01b03831660009081526002602090815260409091208351610cc092850190611949565b506001600160a01b0390921660009081526002602052604090206001019190915550565b600654600110610d365760405162461bcd60e51b815260206004820152601760248201527f4c415354204f5241434c452043414e2754204c4541564500000000000000000060448201526064016103b5565b336000818152602081905260409081902060019081905560075491516323b872dd60e01b8152306004820152602481019390935260448301526001600160a01b0316906323b872dd90606401602060405180830381600087803b158015610d9c57600080fd5b505af1158015610db0573d6000803e3d6000fd5b505050506040513d601f19601f82011682018060405250810190610dd49190611bcc565b610e205760405162461bcd60e51b815260206004820152601960248201527f4641494c454420544f205452414e5346455220414d4f554e540000000000000060448201526064016103b5565b565b60606006805480602002602001604051908101604052809291908181526020018280548015610e7a57602002820191906000526020600020905b81546001600160a01b03168152600190910190602001808311610e5c575b5050505050905090565b6001600160a01b038116600090815260026020526040902060010154421015610eef5760405162461bcd60e51b815260206004820152601a60248201527f564f54494e4720504552494f44204841534e275420454e44454400000000000060448201526064016103b5565b6001600160a01b038116600090815260026020526040902060010154610f189062093a80611d0d565b421115610f675760405162461bcd60e51b815260206004820152601260248201527f372064617973206861766520706173736564000000000000000000000000000060448201526064016103b5565b610f70816107d1565b610fbc5760405162461bcd60e51b815260206004820152601a60248201527f434f4e53454e53555320484153204245454e205245414348454400000000000060448201526064016103b5565b6001600160a01b0381811660009081526002602052604090819020600301805460ff60881b1916600160881b1790556007546004805492516323b872dd60e01b815233918101919091523060248201526044810192909252909116906323b872dd90606401602060405180830381600087803b15801561103b57600080fd5b505af115801561104f573d6000803e3d6000fd5b505050506040513d601f19601f820116820180604052508101906110739190611bcc565b6110bf5760405162461bcd60e51b815260206004820152601960248201527f4641494c454420544f205452414e5346455220414d4f554e540000000000000060448201526064016103b5565b6005546001600160a01b038281166000908152600260205260409081902090517f748d6c68000000000000000000000000000000000000000000000000000000008152919092169163748d6c689161111b918591600401611bec565b600060405180830381600087803b15801561113557600080fd5b505af1158015611149573d6000803e3d6000fd5b505050506001600a60008282546111609190611d0d565b909155505050565b336000908152602081905260409020546001146111c75760405162461bcd60e51b815260206004820152601760248201527f4e4f5420414444454420425920474f5645524e414e434500000000000000000060448201526064016103b5565b6007546003546040516323b872dd60e01b815233600482015230602482015260448101919091526001600160a01b03909116906323b872dd90606401602060405180830381600087803b15801561121d57600080fd5b505af1158015611231573d6000803e3d6000fd5b505050506040513d601f19601f820116820180604052508101906112559190611bcc565b6112a15760405162461bcd60e51b815260206004820152601960248201527f4641494c454420544f205452414e5346455220414d4f554e540000000000000060448201526064016103b5565b60068054600181019091557ff652222313e28459528d920b65115c16c04f3efc82aaedc97be59f3f377c0d3f0180547fffffffffffffffffffffffff000000000000000000000000000000000000000016339081179091556003546000828152602081815260409182902083905581519384528301919091527fe5f9fbb53a5143b0db531c59018d40975ac32a8efab56c801d785efbe5a387b6910160405180910390a1565b6001600160a01b0381166000908152600260205260409020600101544210156113b25760405162461bcd60e51b815260206004820152601a60248201527f564f54494e4720504552494f44204841534e275420454e44454400000000000060448201526064016103b5565b6001600160a01b0381166000908152600260205260409020600101546113db9062093a80611d0d565b42111561142a5760405162461bcd60e51b815260206004820152601260248201527f372064617973206861766520706173736564000000000000000000000000000060448201526064016103b5565b611433816107d1565b156114805760405162461bcd60e51b815260206004820152601e60248201527f434f4e53454e53555320484153204e4f54204245454e2052454143484544000060448201526064016103b5565b6001600160a01b038082166000908152600260205260409081902060038101805460ff60881b1916600160881b17905560055491517f748d6c68000000000000000000000000000000000000000000000000000000008152919092169163748d6c689161111b918591600401611bec565b6005546001600160a01b0316331461154b5760405162461bcd60e51b815260206004820152601f60248201527f4f4e4c5920474f5645524e414e43452043414e20414444204f5241434c45530060448201526064016103b5565b6001600160a01b038116600090815260208190526040902054156115b15760405162461bcd60e51b815260206004820152601560248201527f4f5241434c452041444c5245414459204144444544000000000000000000000060448201526064016103b5565b6001600160a01b038116600090815260208181526040918290206001905590513381527e034d2629a40b6e5b56b1f5781346220bdeaf04c372f4f70ecd170c954a3c97910160405180910390a150565b6005546001600160a01b0316331461165b5760405162461bcd60e51b815260206004820152601e60248201527f4f4e4c5920474f5645524e414e43452043414e204144442052454d4f5645000060448201526064016103b5565b6001600160a01b0381166000908152602081905260409020546116c05760405162461bcd60e51b815260206004820152601060248201527f4f5241434c45204e4f542041444445440000000000000000000000000000000060448201526064016103b5565b6001600160a01b03811660009081526020819052604081208190556116e4826118e8565b60068054919250906116f890600190611d25565b8154811061171657634e487b7160e01b600052603260045260246000fd5b600091825260209091200154600680546001600160a01b03909216918390811061175057634e487b7160e01b600052603260045260246000fd5b9060005260206000200160006101000a8154816001600160a01b0302191690836001600160a01b03160217905550600680548061179d57634e487b7160e01b600052603160045260246000fd5b600082815260209020810160001990810180547fffffffffffffffffffffffff00000000000000000000000000000000000000001690550190555050565b60005b6006548110156118e3576001600160a01b0383166000908152600260205260408120600301546006805460809290921b6001600160801b031916926001929091908590811061183d57634e487b7160e01b600052603260045260246000fd5b6000918252602080832091909101546001600160a01b039081168452838201949094526040928301822093881682529290925290205460801b6001600160801b031916146118d1576001600080600684815481106118ab57634e487b7160e01b600052603260045260246000fd5b60009182526020808320909101546001600160a01b031683528201929092526040019020555b806118db81611d3c565b9150506117de565b505050565b6000805b826001600160a01b03166006828154811061191757634e487b7160e01b600052603260045260246000fd5b6000918252602090912001546001600160a01b031614611943578061193b81611d3c565b9150506118ec565b92915050565b828054828255906000526020600020906001016002900481019282156119fd5791602002820160005b838211156119bf57835183826101000a8154816fffffffffffffffffffffffffffffffff021916908360801c02179055509260200192601001602081600f01049283019260010302611972565b80156119fb5782816101000a8154906fffffffffffffffffffffffffffffffff0219169055601001602081600f010492830192600103026119bf565b505b50611a09929150611a0d565b5090565b5b80821115611a095760008155600101611a0e565b80356001600160a01b03811681146103df57600080fd5b80356001600160801b0319811681146103df57600080fd5b600060208284031215611a62578081fd5b611a6b82611a22565b9392505050565b60008060408385031215611a84578081fd5b611a8d83611a22565b9150611a9b60208401611a22565b90509250929050565b600080600060608486031215611ab8578081fd5b611ac184611a22565b925060208085013567ffffffffffffffff80821115611ade578384fd5b818701915087601f830112611af1578384fd5b813581811115611b0357611b03611d6d565b8381026040517fffffffffffffffffffffffffffffffffffffffffffffffffffffffffffffffe0603f83011681018181108582111715611b4557611b45611d6d565b604052828152858101935084860182860187018c1015611b63578788fd5b8795505b83861015611b8c57611b7881611a39565b855260019590950194938601938601611b67565b50979a979950505050604095909501359450505050565b60008060408385031215611bb5578182fd5b611bbe83611a22565b9150611a9b60208401611a39565b600060208284031215611bdd578081fd5b81518015158114611a6b578182fd5b600060408083016001600160a01b038616845260208281860152818654611c17818590815260200190565b60008981526020902094509150855b60018281830110611c375750611c6e565b8554611c4f858260801b6001600160801b0319169052565b6001600160801b03191685850152949094019391850191600201611c26565b8454955081811015611c9857611c90838760801b6001600160801b0319169052565b918301916001015b81811015611cb2576001600160801b031986168352918301915b509098975050505050505050565b6020808252825182820181905260009190848201906040850190845b81811015611d015783516001600160a01b031683529284019291840191600101611cdc565b50909695505050505050565b60008219821115611d2057611d20611d57565b500190565b600082821015611d3757611d37611d57565b500390565b6000600019821415611d5057611d50611d57565b5060010190565b634e487b7160e01b600052601160045260246000fd5b634e487b7160e01b600052604160045260246000fdfea2646970667358221220bb84ee640ff4db2788eadf8857113b3298d3ff4e77aedb888114d4303618b2b664736f6c63430008020033",
  "linkReferences": {},
  "deployedLinkReferences": {}
}